:100000000C948E000C94B5030C94AB000C94AB00D4
:100010000C94AB000C94AB000C94AB000C94AB00B4
:100020000C94AB000C94AB000C94AB000C94AB00A4
:100030000C94AB000C94AB000C9490030C94AB00AC
:100040000C94AB000C94AB000C94AB000C94AB0084
:100050000C94AB000C94AB000C94AB000C94AB0074
:100060000C94AB000C94AB0008000000BE92244935
:10007000123EABAAAA2ABECDCCCC4C3E00000080DA
:10008000BEABAAAAAA3E00000000BF000000803F4D
:100090000000000000084178D3BB4387D1133D190D
:1000A0000E3CC3BD4282AD2B3E68EC8276BED98F3A
:1000B000E1A93E4C80EFFFBE01C4FF7F3F0000007E
:1000C000000007634236B79BD8A71A39685618AEA6
:1000D000BAAB558C1D3CB7CC5763BD6DEDFD753E7D
:1000E000F6177231BF000000803F1200AE01A83F3A
:1000F0000120000221007F02220007004001D300FE
:1001000000A100C801DA1201817F00A400A601D578
:100110008001D9C201DB20018D1400AF11241FBE64
:10012000CFEFD8E0DEBFCDBF11E0A0E0B1E0ECE65C
:10013000F7E102C005900D92AC33B107D9F725E085
:10014000ACE3B1E001C01D92AF34B207E1F70E9409
:1001500018040C94B40B0C940000CF93C82F0E9489
:100160001C01811104C08C2FCF910C943801CF91C8
:100170000895CF93C82F80E80E944D01811104C0DB
:100180008C2FCF910C944D01CF910895FF920F9336
:100190001F93CF93DF93D82F1092480510924705F5
:1001A000EAEEF0E0C4910E9410018D2F0E94AD0094
:1001B00081111FC0D0E0EBEEF0E02097B9F0F49091
:1001C0008F010E5F1F4F319684910E94B9008111FB
:1001D00010C0F801FF2041F0F80184910E94B9009D
:1001E000FA940F5F1F4FF3CF2197E7CF0E94610171
:1001F00080E0DF91CF911F910F91FF90089580E0F3
:1002000094E0ECE3F1E0DF019C011D9221503040CD
:10021000E1F7089590E0909348058093470508958D
:1002200082E08093B800E9EBF0E0808190818270F9
:100230008160892B808308958091B90087758093B0
:10024000B90084EA8093BC008091BC0087FFFCCF9A
:100250008091B900887F883049F08091B900887F0B
:10026000803121F08091B900887F089580E0089561
:10027000880F8093BB0084E88093BC008091BC0011
:1002800087FFFCCF8091B900887F883121F0809171
:10029000B900887F089580E008958093BB0084E8CA
:1002A0008093BC008091BC0087FFFCCF8091B90097
:1002B000887F883221F08091B900887F089580E09E
:1002C000089584E98093BC0008958A3071F4809188
:1002D000C00085FFFCCF8AE08093C6008091C000FB
:1002E00085FFFCCF8DE08093C6009091C00095FF04
:1002F000FCCF8093C600089588E090E09093C500FD
:100300008093C40088E18093C10086E08093C2009E
:1003100008952F923F924F925F926F927F928F92A9
:100320009F92AF92BF92CF92DF92EF92FF920F9384
:100330001F93CF93DF9300D000D000D0CDB7DEB7AE
:100340001C012A013B019A01AB01C301B2010E94C9
:100350009B07882319F06FE071E026C073016201EA
:10036000E894F7F82FEF3FEF4FE75FE7C701B601DB
:100370000E949B0781110DC02FEF3FEF4FE75FE712
:10038000C701B6010E94CA0418161CF463E171E0AB
:100390000BC020E030E0A901C301B2010E94CA04F1
:1003A000811106C067E171E0C1010E949F0874C11C
:1003B00020E030E0A901C301B2010E94CA04730128
:1003C000620187FF04C0F7FAF094F7F8F094C701D0
:1003D000B6010E9486060E9441054B015C017E83A6
:1003E0006D836E3071052CF520E030E0A901C3016A
:1003F000B2010E94CA0487FF03C0C4010997A4F494
:1004000091E080E0ED81FE81E83FFF4F0CF090E04D
:100410009B838C8320E030E0A901C301B2010E94DC
:10042000CA0487FF1AC012C081E090E09C838B83CE
:100430000DC020E030E0A901C301B2010E94CA044E
:1004400087FF28C1E1E0F0E0FC83EB8381010F5FCF
:100450001F4F8DE2F101808301C081012B813C811E
:10046000232BB1F18D819E8197FF10C0B401990CAF
:10047000880B990B0E94790520E030E040E85FE3AB
:100480000E945D040E9441057E836D83ED81FE81A3
:10049000BF01FF0F880B990B0E9479059B01AC01EE
:1004A00060E070E080E291E40E944B079B01AC01A8
:1004B000C701B6010E94CF046B017C012D813E81F2
:1004C0003A83298381E090E09C838B831E821D8286
:1004D000ED81FE81BF01FF0F880B990B0E9479050A
:1004E00020E030E040E85FE30E94CA0487FF2AC0B2
:1004F0001E821D8227C0ED81FE81F7FD7BC02D810C
:100500003E81B901330F880B990B0E9479059B013D
:10051000AC0160E070E080E291E40E944B072B01A7
:100520003C0120E030E0A9010E9481061816ACF0E1
:100530002D813E81232B09F44DC08D819E81019731
:100540009E838D832CED34E244E358E2C701B6016B
:100550000E94810618169CF2CECF53014201E89406
:10056000B7F82FEF3FEF4FE75FE7C501B4010E94F7
:100570009B0781110AC02FEF3FEF4FE75FE7C501EF
:10058000B4010E94CA0418169CF2A3019201C7018B
:10059000B6010E94CF040E94B4050E9441054B01A0
:1005A0005C01072E000C880B990B0E947905A301B2
:1005B00092010E94DE069B01AC01C701B6010E94B8
:1005C0005D046B017C0180E3880DF80180830F5F7F
:1005D0001F4FAECF20E030E0A901C701B6010E9455
:1005E000810618160CF0A9CF2EE2F80120830F5FC8
:1005F0001F4FA3CF2B813C81232B09F448C085E6F4
:10060000F801808398012E5F3F4F89819A811816E7
:1006100019061CF48BE281830AC08DE2F801818304
:1006200089819A819195819591099A838983F901AC
:100630008F01021B130B89819A81892B59F08981C3
:100640009A816AE070E00E947708805D81936983F7
:100650007A83EECF980121503109E01BF10B0E0F88
:100660001F1FD80140E050E01197421753077CF458
:1006700090818C91892780839C9189278C9390818C
:10068000892781934F5F5F4F21503109EDCFF801EA
:10069000108202C08101FACEC10126960FB6F894ED
:1006A000DEBF0FBECDBFDF91CF911F910F91FF90A5
:1006B000EF90DF90CF90BF90AF909F908F907F9002
:1006C0006F905F904F903F902F90089584B5826017
:1006D00084BD81E087BDEEE6F0E0808182608083AA
:1006E000089517B888B1806388B91AB85A9A0E94D9
:1006F0007C0181E091E090934C0580934B058CE365
:100700000E94C6000E94FF0081E00E940A01F89446
:10071000E9E6F0E0808181608083E89A789408952A
:100720001F920F920FB60F9211248F939F93AF9346
:10073000BF938091410590914205A0914305B091EE
:1007400044058096A11DB11D8093410590934205FB
:10075000A0934305B0934405BF91AF919F918F91B2
:100760000F900FBE0F901F9018951F920F920FB60B
:100770000F9211242F933F934F935F936F937F9327
:100780008F939F93AF93BF93EF93FF93809100015B
:10079000813079F489E191E00E94BC0885B58460DC
:1007A00085BD1092410510924205109243051092AA
:1007B000440580910001823029F586E291E00E9493
:1007C000BC088091410590914205A0914305B091EC
:1007D000440580933D0590933E05A0933F05B0935B
:1007E000400581E080933C051092000195B584E0BE
:1007F000892785BD1092410510924205109243054C
:1008000010924405809100018F5F80930001FF9159
:10081000EF91BF91AF919F918F917F916F915F9178
:100820004F913F912F910F900FBE0F901F901895F1
:10083000CF93DF93CDB7DEB7A0970FB6F894DEBFA6
:100840000FBECDBF0E9471030E9466038E010F5F31
:100850001F4F81E3C82E81E0D82E9AE3E92E91E064
:10086000F92E80913C058823E1F360913D0570915C
:100870003E0580913F05909140050E94770520E05C
:1008800034E244E759E40E94CF04AB01BC01C80143
:100890000E948901DF92CF920E94A608FF92EF92F8
:1008A0001F930F930E94A60810923C050F900F9083
:1008B0000F900F900F900F90D4CF5058BB27AA27BE
:1008C0000E9475040C942F060E94210638F00E94A5
:1008D000280620F039F49F3F19F426F40C941E06E4
:1008E0000EF4E095E7FB0C94EF05E92F0E9440061B
:1008F00058F3BA17620773078407950720F079F455
:10090000A6F50C947A060EF4E0950B2EBA2FA02DC6
:100910000B01B90190010C01CA01A0011124FF27AC
:10092000591B99F0593F50F4503E68F11A16F040A7
:10093000A22F232F342F4427585FF3CF46953795A6
:100940002795A795F0405395C9F77EF41F16BA0B6B
:10095000620B730B840BBAF09150A1F0FF0FBB1F19
:10096000661F771F881FC2F70EC0BA0F621F731F62
:10097000841F48F4879577956795B795F7959E3FBF
:1009800008F0B0CF9395880F08F09927EE0F979550
:10099000879508950E94CB0508F481E008950E9490
:1009A000E3040C942F060E94280658F00E942106AA
:1009B00040F029F45F3F29F00C94EF0551110C949D
:1009C0007B060C941E060E94400668F39923B1F33F
:1009D000552391F3951B550BBB27AA276217730765
:1009E000840738F09F5F5F4F220F331F441FAA1FF9
:1009F000A9F335D00E2E3AF0E0E832D091505040B5
:100A0000E695001CCAF72BD0FE2F29D0660F771F62
:100A1000881FBB1F261737074807AB07B0E809F048
:100A2000BB0B802DBF01FF2793585F4F3AF09E3FCD
:100A3000510578F00C94EF050C947B065F3FE4F3CE
:100A4000983ED4F3869577956795B795F7959F5F10
:100A5000C9F7880F911D9695879597F90895E1E05C
:100A6000660F771F881FBB1F621773078407BA07BB
:100A700020F0621B730B840BBA0BEE1F88F7E09516
:100A800008950E9448056894B1110C947B0608955E
:100A90000E94480688F09F5798F0B92F9927B751C0
:100AA000B0F0E1F0660F771F881F991F1AF0BA9512
:100AB000C9F714C0B13091F00E947A06B1E00895F0
:100AC0000C947A06672F782F8827B85F39F0B93FE2
:100AD000CCF3869577956795B395D9F73EF49095C5
:100AE0008095709561957F4F8F4F9F4F0895E89443
:100AF00009C097FB3EF490958095709561957F4F66
:100B00008F4F9F4F9923A9F0F92F96E9BB27939513
:100B1000F695879577956795B795F111F8CFFAF423
:100B2000BB0F11F460FF1BC06F5F7F4F8F4F9F4F54
:100B300016C0882311F096E911C0772321F09EE8B2
:100B4000872F762F05C0662371F096E8862F70E018
:100B500060E02AF09A95660F771F881FDAF7880FF2
:100B60009695879597F908950E94620690F09F37B1
:100B700048F4911116F00C947B0660E070E080E878
:100B80009FEB089526F41B16611D711D811D0C94A9
:100B9000F5050C941006990F0008550FAA0BE0E814
:100BA000FEEF16161706E807F907C0F0121613062F
:100BB000E407F50798F0621B730B840B950B39F46F
:100BC0000A2661F0232B242B252B21F408950A26D5
:100BD00009F4A140A6958FEF811D811D089597F915
:100BE0009F6780E870E060E00895882371F47723C0
:100BF00021F09850872B762F07C0662311F4992790
:100C00000DC09051862B70E060E02AF09A95660F37
:100C1000771F881FDAF7880F9695879597F90895BB
:100C20009F3F31F0915020F4879577956795B79560
:100C3000880F911D9695879597F908959FEF80EC01
:100C4000089500240A941616170618060906089532
:100C500000240A9412161306140605060895092E98
:100C60000394000C11F4882352F0BB0F40F4BF2B07
:100C700011F460FF04C06F5F7F4F8F4F9F4F089547
:100C800057FD9058440F551F59F05F3F71F047953D
:100C9000880F97FB991F61F09F3F79F08795089522
:100CA000121613061406551FF2CF4695F1DF08C041
:100CB000161617061806991FF1CF8695710561055E
:100CC000089408950E944806A0F0BEE7B91788F47A
:100CD000BB279F3860F41616B11D672F782F882721
:100CE000985FF7CF869577956795B11D939596395F
:100CF000C8F30895E894BB2766277727CB0197F9B7
:100D000008950E94CB0508F48FEF08950E9496067F
:100D100029ED3BE54EED5EE30C94DE0616F00C94F7
:100D200010060C941E0668940C94EF050E94480669
:100D3000A8F39923C1F3AEF3DF93CF931F930F93DF
:100D4000FF92C92FDD2788232AF02197660F771F8E
:100D5000881FDAF720E030E040E85FEB9FE3883956
:100D600020F0803E38F021968F770E945E04E8E6FE
:100D7000F0E004C00E945E04E5E9F0E00E94DA07BA
:100D80008B01BE01EC01FB2E6F5771097595771F22
:100D9000880B990B0E94790528E132E741E35FE374
:100DA0000E94F106AF2D9801AE01FF900F911F91A7
:100DB000CF91DF910E9475040C942F060E94F106DA
:100DC0000C942F060E94210638F00E94280620F07D
:100DD000952311F00C94EF050C941E0611240C942D
:100DE0007B060E94400670F3959FC1F3950F50E07B
:100DF000551F629FF001729FBB27F00DB11D639FCD
:100E0000AA27F00DB11DAA1F649F6627B00DA11D72
:100E1000661F829F2227B00DA11D621F739FB00D18
:100E2000A11D621F839FA00D611D221F749F332788
:100E3000A00D611D231F849F600D211D822F762F21
:100E40006A2F11249F5750409AF0F1F088234AF0FE
:100E5000EE0FFF1FBB1F661F771F881F915050406A
:100E6000A9F79E3F510580F00C94EF050C947B068A
:100E70005F3FE4F3983ED4F3869577956795B795F1
:100E8000F795E7959F5FC1F7FE2B880F911D96950B
:100E9000879597F90895FA01EE0FFF1F3096210507
:100EA0003105A1F16115710561F48038BFE39B073D
:100EB00049F168949038810561F08038BFEF9B0755
:100EC00041F099234AF5FF3FE1053105210519F16C
:100ED000E8940894E795D901AA2329F4AB2FBE2FF3
:100EE000F85FD0F310C0FF5F70F4A695E0F7F73914
:100EF00050F019F0FF3A38F49F779F930DD00F9080
:100F000007FC9058089546F00C941E0660E070E0CF
:100F100080E89FE308954FE79F775F934F933F9358
:100F20002F930E9496062F913F914F915F910E94BF
:100F3000DE060C94A8070E94CB05880B990B089538
:100F400029F416F00C94EF050C947A060C941E0606
:100F50000E944806A8F39638A0F707F80F92E89485
:100F60002BE33AEA48EB5FE70E94F4060F920F92F8
:100F70000F924DB75EB70F920E944308E2ECF0E08B
:100F80000E94DA074F915F91EF91FF91E595EE1F77
:100F9000FF1F49F0FE57E0684427EE0F441FFA9503
:100FA000E1F74195550B0E940D080F9007FE0C9438
:100FB00001080895DF93CF931F930F93FF92EF9251
:100FC000DF927B018C01689406C0DA2EEF010E944B
:100FD000F106FE01E894A591259135914591559131
:100FE000A6F3EF010E947504FE019701A801DA94AF
:100FF00069F7DF90EF90FF900F911F91CF91DF91F4
:1010000008959B01AC0160E070E080E89FE30C94E0
:10101000CF040C94EF050C9410060E944806D8F3F8
:101020009923C9F3940F511DA3F39150504094F0AC
:1010300059F0882332F0660F771F881F9150504077
:10104000C1F79E3F51052CF7880F911D9695879506
:1010500097F908955F3FACF0983E9CF0BB278695CA
:1010600077956795B79508F4B1609395C1F7BB0F75
:1010700058F711F460FFE8CF6F5F7F4F8F4F9F4F9E
:10108000E3CF0C947B06FA01DC01AA0FBB1F9B0186
:10109000AC01BF5728F4222733274427507820C0BB
:1010A000B75190F4AB2F0024469537952795011C36
:1010B000A395D2F3002071F0220F331F441FB39584
:1010C000DAF30ED00C945D0461307105A0E88A0754
:1010D000B94630F49B01AC016627772788279078C2
:1010E000309621F02083318342835383089597FB08
:1010F000072E16F4009407D077FD09D00E948B08C4
:1011000007FC05D03EF4909581959F4F089570950A
:1011100061957F4F0895AA1BBB1B51E107C0AA1F11
:10112000BB1FA617B70710F0A61BB70B881F991F88
:101130005A95A9F780959095BC01CD010895FB01C2
:10114000DC0101900D920020E1F70895A0E0B0E0ED
:10115000ECEAF8E00C948D0BAE014B5F5F4FFA01A7
:1011600061917191AF0180914B0590914C050E9466
:10117000EC08E2E00C94A90B0F931F93CF93DF933D
:10118000E0914B05F0914C05238121FF1BC08C01A0
:10119000D0E0C0E0F80181918F0160914B05709122
:1011A0004C05DB011896ED91FC911997882331F0DD
:1011B0000995892B79F3DFEFCFEFECCF8AE0099522
:1011C000892B19F08FEF9FEF02C08D2F9C2FDF919D
:1011D000CF911F910F910895ABE0B0E0E2EFF8E0FE
:1011E0000C947D0B6C017B018A01FC011782168235
:1011F000838181FFCCC1CE0101963C01F601938130
:10120000F70193FD859193FF81917F01882309F474
:10121000BAC1853239F493FD859193FF81917F01A5
:10122000853229F4B60190E00E94E30AE7CF912CC1
:10123000212C312CFFE1F315D8F08B3279F038F402
:10124000803279F08332A1F4232D20611DC08D32CC
:1012500061F0803369F4232D216016C0832D8260F4
:10126000382EE32DE4603E2E2AC0F32DF8601DC019
:1012700037FC2DC020ED280F2A3040F08E32B9F413
:1012800036FC81C1232D2064322E19C036FE06C0E3
:101290008AE0989E200D1124922E11C0EAE02E9E25
:1012A000200D1124222EF32DF0623F2E08C08C3623
:1012B00021F4832D8068382E02C0883641F4F7016E
:1012C00093FD859193FF81917F018111B3CF982F79
:1012D0009F7D9554933028F40C5F1F4F9FE39983B3
:1012E0000DC0833631F0833771F0833509F059C072
:1012F00021C0F801808189830E5F1F4F8824839469
:10130000912C530113C02801F2E04F0E511CF8013B
:10131000A080B18036FE03C0692D70E002C06FEF7F
:101320007FEFC5010E94D80A4C018201F32DFF779F
:101330003F2E16C0280122E0420E511CF801A08069
:10134000B18036FE03C0692D70E002C06FEF7FEF01
:10135000C5010E94CD0A4C01F32DF0683F2E820199
:1013600033FC1BC0822D90E088169906B0F4B601BC
:1013700080E290E00E94E30A2A94F4CFF50137FC62
:10138000859137FE81915F01B60190E00E94E30AEA
:1013900021102A9421E0821A91088114910471F796
:1013A000E8C0843611F0893641F5F80137FE07C0F0
:1013B00060817181828193810C5F1F4F08C06081C1
:1013C0007181072E000C880B990B0E5F1F4FF32DB8
:1013D000FF763F2E97FF09C0909580957095619597
:1013E0007F4F8F4F9F4FF0683F2E2AE030E0A301E0
:1013F0000E941F0B882E861845C0853731F4232D97
:101400002F7EB22E2AE030E025C0932D997FB92E91
:101410008F36C1F018F4883579F0B5C0803719F0EF
:10142000883721F0B0C0E92FE061BE2EB4FE0DC0B8
:10143000FB2DF460BF2E09C034FE0AC0292F2660A0
:10144000B22E06C028E030E005C020E130E002C046
:1014500020E132E0F801B7FE07C06081718182812E
:1014600093810C5F1F4F06C06081718180E090E026
:101470000E5F1F4FA3010E941F0B882E8618FB2DA5
:10148000FF773F2E36FE0DC0232D2E7FA22E89140E
:1014900058F434FE0BC032FC09C0832D8E7EA82E7A
:1014A00005C0B82CA32C03C0B82C01C0B92CA4FED5
:1014B0000FC0FE01E80DF11D8081803321F49A2DCB
:1014C000997EA92E09C0A2FE06C0B394B39404C0AD
:1014D0008A2D867809F0B394A3FC11C0A0FE06C043
:1014E000B21488F4280C922C9B180EC0B21460F42D
:1014F000B60180E290E00E94E30AB394F7CFB21401
:1015000018F42B1802C0982C212CA4FE10C0B60190
:1015100080E390E00E94E30AA2FE17C0A1FC03C092
:1015200088E790E002C088E590E0B6010CC08A2D03
:10153000867859F0A1FE02C08BE201C080E2A7FCD0
:101540008DE2B60190E00E94E30A891438F4B601F6
:1015500080E390E00E94E30A9A94F7CF8A94F30123
:10156000E80DF11D8081B60190E00E94E30A811030
:10157000F5CF222009F442CEB60180E290E00E942D
:10158000E30A2A94F6CFF6018681978102C08FEF95
:101590009FEF2B96E2E10C94990BFC0105906150B2
:1015A00070400110D8F7809590958E0F9F1F089579
:1015B000FC016150704001900110D8F78095909522
:1015C0008E0F9F1F08950F931F93CF93DF93FB01FF
:1015D000238121FD03C08FEF9FEF2CC022FF16C097
:1015E00046815781248135814217530744F4A081F5
:1015F000B1819D012F5F3F4F318320838C932681E2
:1016000037812F5F3F4F3783268314C08B01EC0156
:10161000FB010084F185E02D0995892BE1F6D801C5
:1016200016968D919C911797019617969C938E9381
:101630001697CE01DF91CF911F910F910895FA0176
:10164000AA27283051F1203181F1E8946F936E7F01
:101650006E5F7F4F8F4F9F4FAF4FB1E03ED0B4E0F2
:101660003CD0670F781F891F9A1FA11D680F791F33
:101670008A1F911DA11D6A0F711D811D911DA11D44
:1016800020D009F468943F912AE0269F1124301954
:10169000305D3193DEF6CF010895462F4770405DEF
:1016A0004193B3E00FD0C9F7F6CF462F4F70405D9E
:1016B0004A3318F0495D31FD4052419302D0A9F7F9
:1016C000EACFB4E0A6959795879577956795BA95F3
:1016D000C9F700976105710508959B01AC010A2EB9
:1016E00006945795479537952795BA95C9F7620F90
:1016F000731F841F951FA01D08952F923F924F9234
:101700005F926F927F928F929F92AF92BF92CF9291
:10171000DF92EF92FF920F931F93CF93DF93CDB79A
:10172000DEB7CA1BDB0B0FB6F894DEBF0FBECDBF12
:1017300009942A88398848885F846E847D848C84E3
:101740009B84AA84B984C884DF80EE80FD800C81EC
:101750001B81AA81B981CE0FD11D0FB6F894DEBFCF
:0C1760000FBECDBFED010895F894FFCF3F
:10176C000100000002000000006501000000006E96
:10177C00616E00696E660030000A53484F4F54206A
:10178C0053544152540053484F4F542053544F50CC
:0C179C00000A53484F4F542120000A005F
:00000001FF
